{
    "contractName": "StakeContract",
    "abi": [
        {
            "anonymous": false,
            "inputs": [
                {
                    "indexed": false,
                    "internalType": "address",
                    "name": "",
                    "type": "address"
                },
                {
                    "indexed": false,
                    "internalType": "uint256",
                    "name": "",
                    "type": "uint256"
                },
                {
                    "indexed": false,
                    "internalType": "uint256",
                    "name": "",
                    "type": "uint256"
                }
            ],
            "name": "AddStack",
            "type": "event"
        },
        {
            "anonymous": false,
            "inputs": [
                {
                    "indexed": false,
                    "internalType": "address",
                    "name": "",
                    "type": "address"
                },
                {
                    "indexed": false,
                    "internalType": "uint256",
                    "name": "",
                    "type": "uint256"
                },
                {
                    "indexed": false,
                    "internalType": "uint256",
                    "name": "",
                    "type": "uint256"
                }
            ],
            "name": "Withdrawal",
            "type": "event"
        },
        {
            "inputs": [
                {
                    "internalType": "address",
                    "name": "_address",
                    "type": "address"
                }
            ],
            "name": "calInterest",
            "outputs": [
                {
                    "internalType": "uint256",
                    "name": "",
                    "type": "uint256"
                }
            ],
            "stateMutability": "view",
            "type": "function"
        },
        {
            "inputs": [
                {
                    "internalType": "uint256",
                    "name": "_amount",
                    "type": "uint256"
                }
            ],
            "name": "stakeToken",
            "outputs": [],
            "stateMutability": "nonpayable",
            "type": "function"
        },
        {
            "inputs": [
                {
                    "internalType": "address",
                    "name": "",
                    "type": "address"
                }
            ],
            "name": "stakers",
            "outputs": [
                {
                    "internalType": "uint256",
                    "name": "timeStaked",
                    "type": "uint256"
                },
                {
                    "internalType": "uint256",
                    "name": "amount",
                    "type": "uint256"
                },
                {
                    "internalType": "address",
                    "name": "staker",
                    "type": "address"
                },
                {
                    "internalType": "bool",
                    "name": "status",
                    "type": "bool"
                }
            ],
            "stateMutability": "view",
            "type": "function"
        },
        {
            "inputs": [
                {
                    "internalType": "uint256",
                    "name": "_amount",
                    "type": "uint256"
                }
            ],
            "name": "withdraw",
            "outputs": [],
            "stateMutability": "nonpayable",
            "type": "function"
        }
    ],
    "bytecode": "6080604052600080546001600160a01b031990811673bc4ca0eda7647a8ab7c2061c2e118a18a936f13d9081179092556001805482167340a42baf86fc821f972ad2ac878729063ceef403179055600280548216831790556003805490911690911790556203f48060055534801561007657600080fd5b50610846806100866000396000f3fe608060405234801561001057600080fd5b506004361061004c5760003560e01c80632e1a7d4d146100515780633e834e03146100665780639168ae721461008c578063cda6b84714610101575b600080fd5b61006461005f366004610706565b610114565b005b61007961007436600461071f565b61031a565b6040519081526020015b60405180910390f35b6100d061009a36600461071f565b6004602052600090815260409020805460018201546002909201549091906001600160a01b03811690600160a01b900460ff1684565b604051610083949392919093845260208401929092526001600160a01b031660408301521515606082015260800190565b61006461010f366004610706565b6103c6565b33600090815260046020526040812080549091906101329042610765565b90506005548111156101c15760006101493361031a565b9050600081846001015461015d919061077c565b9050848110156101a85760405162461bcd60e51b8152602060048201526011602482015270125b9cdd59999a58da595b9d08199d5b99607a1b60448201526064015b60405180910390fd5b6101b28582610765565b60018501555050428255610222565b82826001015410156102095760405162461bcd60e51b8152602060048201526011602482015270125b9cdd59999a58da595b9d08199d5b99607a1b604482015260640161019f565b8282600101546102199190610765565b60018301554282555b60035460405163a9059cbb60e01b8152336004820152602481018590526001600160a01b039091169063a9059cbb906044016020604051808303816000875af1158015610273573d6000803e3d6000fd5b505050506040513d601f19601f820116820180604052508101906102979190610794565b5042825560018201546102ba5760028201805460ff60a01b1916905560006102d2565b60028201805460ff60a01b1916600160a01b17905560015b508154604080513381526020810186905280820192909252517fdf273cb619d95419a9cd0ec88123a0538c85064229baa6363788f743fff90deb9181900360600190a1505050565b6001600160a01b0381811660009081526004602090815260408083208151608081018352815481526001820154938101939093526002015493841690820152600160a01b90920460ff16151560608301819052909190820361037f5750600092915050565b805162015180906000906103939042610765565b905060006103a38361012c6107b6565b60208501516103b290846107b6565b6103bc91906107d5565b9695505050505050565b6002546040516370a0823160e01b81523360048201526001916001600160a01b0316906370a0823190602401602060405180830381865afa15801561040f573d6000803e3d6000fd5b505050506040513d601f19601f8201168201806040525081019061043391906107f7565b10156104815760405162461bcd60e51b815260206004820152601e60248201527f4f6e6c7920626f72656441706573206f776e65722063616e207374616b650000604482015260640161019f565b6003546040516370a0823160e01b815233600482015282916001600160a01b0316906370a0823190602401602060405180830381865afa1580156104c9573d6000803e3d6000fd5b505050506040513d601f19601f820116820180604052508101906104ed91906107f7565b101561052d5760405162461bcd60e51b815260206004820152600f60248201526e1a5b9cdd59999a595b9d08199d5b99608a1b604482015260640161019f565b6003546040516323b872dd60e01b8152336004820152306024820152604481018390526001600160a01b03909116906323b872dd906064016020604051808303816000875af1158015610584573d6000803e3d6000fd5b505050506040513d601f19601f820116820180604052508101906105a89190610794565b503360009081526004602052604090206002810154600160a01b900460ff1615156001036106925780546000906105df9042610765565b905060055481111561066f5760055481116106255760405162461bcd60e51b81526020600482015260066024820152656f6762656e6960d01b604482015260640161019f565b60006106303361031a565b905080836001016000828254610646919061077c565b9250508190555083836001016000828254610661919061077c565b90915550504283555061068c565b82826001016000828254610683919061077c565b90915550504282555b506106c0565b4281556001810182905560028101805460ff60a01b1933166001600160a81b031990911617600160a01b1790555b8054604080513381526020810185905280820192909252517f09f90df64d2bda1ee9dbae606c95bb78816215c4d0b93a16d0fc5f990d08f5859181900360600190a15050565b60006020828403121561071857600080fd5b5035919050565b60006020828403121561073157600080fd5b81356001600160a01b038116811461074857600080fd5b9392505050565b634e487b7160e01b600052601160045260246000fd5b6000828210156107775761077761074f565b500390565b6000821982111561078f5761078f61074f565b500190565b6000602082840312156107a657600080fd5b8151801515811461074857600080fd5b60008160001904831182151516156107d0576107d061074f565b500290565b6000826107f257634e487b7160e01b600052601260045260246000fd5b500490565b60006020828403121561080957600080fd5b505191905056fea26469706673582212203f18ff6dca6c171a53f1610553c811b8e0c4f668c9496a793891cf4555c42f4864736f6c634300080d0033",
    "sourcePath": "/home/adegbite/boredApeStakingContract/contracts/Staking.sol",
    "compiler": {
        "name": "solc",
        "version": "0.8.13+commit.abaa5c0e"
    },
    "functionHashes": {
        "calInterest(address)": "3e834e03",
        "stakeToken(uint256)": "cda6b847",
        "stakers(address)": "9168ae72",
        "withdraw(uint256)": "2e1a7d4d"
    },
    "gasEstimates": {
        "creation": {
            "codeDepositCost": "423600",
            "executionCost": "119487",
            "totalCost": "543087"
        },
        "external": {
            "calInterest(address)": "infinite",
            "stakeToken(uint256)": "infinite",
            "stakers(address)": "6882",
            "withdraw(uint256)": "infinite"
        }
    }
}